:020000040800F2
:100000005808002091010008D31A0008C5190008FB
:10001000D11A000817060008F51F000800000000AC
:10002000000000000000000000000000D71A0008D7
:100030005B06000800000000D51A0008D91A000865
:10004000AB010008AB010008AB010008AB010008E0
:10005000AB010008AB010008AB010008AB010008D0
:10006000AB010008AB010008AB010008AB010008C0
:10007000AB010008AB0100081906000825060008BE
:10008000AB010008AB010008AB010008AB010008A0
:10009000AB010008AB010008AB010008AB01000890
:1000A000AB010008AB010008AB010008AB01000880
:1000B0003D1B0008AB010008AB010008AB010008C4
:1000C000AB010008AB010008AB010008AB01000860
:1000D000AB010008E91F0008AB010008AB010008F4
:1000E000AB010008AB010008AB01000800F002F80A
:1000F00000F03FF80AA090E8000C82448344AAF183
:100100000107DA4501D100F034F8AFF2090EBAE880
:100110000F0013F0010F18BFFB1A43F0010318473B
:10012000BC200000DC200000103A24BF78C878C151
:10013000FAD8520724BF30C830C144BF04680C60ED
:10014000704700000023002400250026103A28BF35
:1001500078C1FBD8520728BF30C148BF0B60704739
:10016000642900F07D80002070471FB51FBD10B5C9
:1001700010BD00F016FA1146FFF7F7FF01F04CFF33
:1001800000F034FA03B4FFF7F2FF03BC00F03CFACE
:100190000948804709480047FEE7FEE7FEE7FEE71B
:1001A000FEE7FEE7FEE7FEE7FEE7FEE70448054957
:1001B000054A064B704700003B1B0008ED00000895
:1001C000580200205808002058040020580400203D
:1001D0000FB41CB5074B06AA7B44694600900598EE
:1001E00000F095F90020694600F0A4F91CBC5DF808
:1001F00014FB0000590300002DE9F0410E460446AF
:10020000002020622046E168884730B3252805D0C9
:10021000D4E901219047206A401CF2E7E1682046BA
:1002200000278847050018D0A5F14100192802D8F9
:1002300020354FF400673246294620462760FFF7F5
:100240008FFF40B1012804D0F61D26F007060836BE
:10025000D8E7361DD6E72846DAE7206ABDE8F08100
:100260002DE9F0410646002410687529314616A58F
:1002700010D0AFF30080002802DA404213A507E057
:1002800031688A0701D512A502E0490704D511A5F6
:10029000012401E0AFF3008000210A2206F12407C7
:1002A00009E0B0FBF2FCB0FBF2F302FB1C003030C3
:1002B00078541846491C0028F3D123462A46304674
:1002C000BDE8F04100F0C4B8000000002D000000BF
:1002D0002B0000002000000010B5431C02E010F8C5
:1002E000011B71B18107FAD14FF0013202C88C1A9B
:1002F0008C4314EAC211F9D0C01A0A0603D0C01EFA
:1003000010BDC01A10BD0A0401D0801E10BD090224
:10031000FCD0401E10BD421E12F8013F002BFBD145
:1003200011F8013B002B02F8013BF9D17047032A79
:1003300040F2308010F0030C00F0158011F8013B02
:10034000BCF1020F624498BF11F801CB00F8013BE9
:1003500038BF11F8013BA2F1040298BF00F801CBAD
:1003600038BF00F8013B11F0030300F0E880083AC1
:10037000C0F0088051F8043B083A51F804CBA0E8DB
:100380000810F5E7121D5CBF51F8043B40F8043B30
:10039000AFF30080D20724BF11F8013B11F801CB65
:1003A00048BF11F8012B24BF00F8013B00F801CB36
:1003B00048BF00F8012B70474FF000020429C0F03D
:1003C000128010F0030C00F01B80CCF1040CBCF187
:1003D000020F18BF00F8012BA8BF20F8022BA1EBD9
:1003E0000C0100F00DB85FEAC17C24BF00F8012BBE
:1003F00000F8012B48BF00F8012B70474FF00002B6
:1004000000B5134694469646203922BFA0E80C500A
:10041000A0E80C50B1F12001BFF4F7AF090728BFE5
:10042000A0E80C5048BF0CC05DF804EB890028BF61
:1004300040F8042B08BF704748BF20F8022B11F08A
:10044000804F18BF00F8012B704770477047704706
:100450002DE9F0470D4699469246044600F12408DE
:100460000168880604D5E06921F01001216000E0F0
:100470000120A84201DD471B00E00027A1697A198D
:1004800002EB0900081AA0612078C00602D42046B9
:10049000AFF30080002608E0D4E901211AF8060035
:1004A0009047206A401C761C20624E45F4DB207881
:1004B000C0060AD52046AFF3008006E0D4E901214A
:1004C00030209047206A401C2062381EA7F10107A7
:1004D000F4DC07E0D4E9012118F805009047206A10
:1004E000401C2062281EA5F10105F3DC2046AFF375
:1004F00000802078000602D50220BDE8F0870120A8
:10050000FBE7000001694A1C02610878704700B5EA
:100510008FB0CDE901310021059105497944CDE93C
:10052000031011466846FFF767FE0FB000BD0000DC
:10053000E5FFFFFF0A6802F8010B0A60704710B57B
:10054000203AC0F00B80B1E81850203AA0E81850CB
:10055000B1E81850A0E81850BFF4F5AF5FEA027C8C
:1005600024BFB1E81850A0E8185044BF18C918C0FB
:10057000BDE810405FEA827C24BF51F8043B40F89C
:10058000043B08BF7047D20728BF31F8023B48BF81
:1005900011F8012B28BF20F8023B48BF00F8012BBF
:1005A0007047754600F02CF8AE4605006946534684
:1005B00020F00700854618B020B5FFF7F7FDBDE82D
:1005C00020404FF000064FF000074FF000084FF0BA
:1005D000000B21F00701AC46ACE8C009ACE8C0094B
:1005E000ACE8C009ACE8C0098D46704710B50446B8
:1005F000AFF300802046BDE81040FFF7C3BD000008
:1006000000487047F401002001491820ABBEFEE706
:10061000260002007047FEE7014800F091B8000094
:10062000B0010020014800F08BB800006C010020F0
:1006300030B590F840500124AC40C56B6C60046844
:1006400063604368102B036803D099600068C26040
:1006500030BD9A600068C16030BD704772B6FEE779
:1006600010B590F821100022022905D004218163E1
:1006700080F82020012010BD01680B6823F00E03D4
:100680000B6001680B6823F001030B6090F84030A9
:10069000C46B012101FA03F3636080F8211080F834
:1006A0002020104610BD000010B590F82110002445
:1006B000022903D00421816301243DE001680A6816
:1006C00022F00E020A6001680A6822F001020A6044
:1006D0001A4A0168914201D1012121E0174A1432DE
:1006E000914201D110211BE0144A2832914201D1DC
:1006F000891515E0114A3C32914201D189140FE06D
:100700000E4A5032914202D14FF4803108E00B4A38
:100710006432914202D14FF4801101E04FF08071B8
:10072000064A083A5160012180F82110002180F822
:100730002010416B01B18847204610BD08000240DF
:100740002DE9F05FC16B0C6801680B68D0F840C000
:10075000042202FA0CF2494DDFF824A1494E4A4F17
:10076000DFF828B1DFF828E122422CD05A072AD539
:100770000A68920603D40A6822F004020A6001683B
:10078000A94201D1042219E0514501D1402215E0CE
:10079000B14202D14FF4806210E0B94202D14FF46D
:1007A00080420BE0594502D14FF4802206E07145AA
:1007B00002D14FF4800201E04FF080622F490839E6
:1007C0004A60C16A3BE04FF0020808FA0CF818EAE8
:1007D000040F4FF000094FF0010235D05FEA837833
:1007E00032D50B689B0605D40B6823F00A030B6017
:1007F00080F821200168A94201D1022219E0514567
:1008000001D1202215E0B14202D14FF4007210E074
:10081000B94202D14FF400520BE0594502D14FF4D6
:10082000003206E0714502D14FF4001201E04FF0B2
:100830000072124908394A6080F82090816A0029C4
:100840001AD0BDE8F05F0847082505FA0CF52542E7
:1008500012D01B0710D50B6823F00E030B6090F825
:100860004010C36B02FA01F15960826380F82120C5
:1008700080F82090016BE2E7BDE8F09F080002409D
:100880001C00024030000240440002405800024078
:100890006C00024030B528B308C81349142219442B
:1008A000B1FBF2F18900C1631049816302214177F4
:1008B0001A6843F6F0718A43D0E900142143D0E965
:1008C00002452C432143046921434469214384693F
:1008D00021431143196000214163012242770177CE
:1008E000084630BD012030BDF8FFFDBF00000240CA
:1008F00070B5044690F82000002501280CD0012096
:1009000084F8200094F821600020012E06D084F89D
:1009100020000225284670BD022070BD022684F802
:100920002160A0632068066826F001060660204664
:10093000FFF77EFEE06A00282068016802D041F0DF
:100940000E0106E021F0040101602068016841F019
:100950000A0101602068016841F001010160D9E7E6
:1009600070B5044600F0FEF80546601C02D004484D
:100970000078044400F0F6F8401BA042FAD370BDA2
:10098000040000202DE9F84FDFF8B8910024A9F108
:10099000040B23460F2709F1040AABF1040EC9E04A
:1009A0000125A5402A40AA427DD1674ED1F804C056
:1009B000ACEB0608B44532D014DCBCF1030F3AD0DE
:1009C00009DCBCF1000F2AD0BCF1010F1CD0BCF136
:1009D000020F31D11DE0BCF1110F17D0BCF1120F85
:1009E0002AD119E0B8F5881F19D006DCB8F5803F88
:1009F00015D0B8F5801F1FD111E0B8F5001F0ED03B
:100A0000B8F5041F18D10AE0CB6815E0CB681B1DB0
:100A100012E0CB6808330FE0CB680C330CE08B6836
:100A20002BB1012B4FF0080303D0456104E00423F0
:100A300002E0056100E00023FF2A01D8064601E03C
:100A400000F104064FEA840501D9A5F12005D6F886
:100A5000008007FA05FC28EA0C0803FA05F548EAC5
:100A60000508C6F800804D68ED0062D5374DAE69C7
:100A700046F00106AE61AD6924F0030605F00105FC
:100A80000095334D06EB050CDCF80850A607360F31
:100A900007FA06F825EA0805DFF8B880404503D1D3
:100AA0004FF0000817E044E0DFF8AC80404502D189
:100AB0004FF001080FE0DFF8A480404502D14FF06D
:100AC000020808E0DFF89880404502D14FF00308A3
:100AD00001E04FF0040808FA06F848EA0508CCF8E7
:100AE00008804D68D9F80060ED024D4601D51643E7
:100AF00000E096432E604D68DAF80060AD0255467E
:100B000001D5164300E096432E604D68DBF8006087
:100B1000AD035D4601D5164300E096432E604D6857
:100B2000DEF80060ED03754601D5164300E09643FC
:100B30002E60641C0D682A46E5407FF431AFBDE8A5
:100B4000F88F00000804014000001110001002405E
:100B50000000014000080140000C0140001001406D
:100B60000014014001488068704700000400002024
:100B700002488168027811448160704704000020B7
:100B8000074810B5016841F010010160032000F032
:100B900075F80F2000F006F800F024F8002010BDD2
:100BA0000020024070B50D4D04464FF47A7128784C
:100BB000B1FBF0F00A490968B1FBF0F000F0DCFA93
:100BC00048B9102C07D200222146501E00F036F8FA
:100BD00000206C6070BD012070BD0000040000208A
:100BE000100000200C4808B5816941F001018161C5
:100BF000816901F001010091C16941F08051C16139
:100C0000C06900F0805000900448416821F0E06124
:100C100041F00071416008BD001002400000014039
:100C2000002809DB00F01F020121914040098000EB
:100C300000F1E020C0F8001170470000F0B40E4B46
:100C40001B680C46C3F30223C3F10705042D00D92A
:100C50000425191D072901D2002300E0DB1E01260F
:100C600006FA05F1491E214099409E40761E164025
:100C70003143F0BC01F0BFB90CED00E0064900F0D3
:100C8000070208684FF6FF03184040EA0220034AB3
:100C900010430860704700000CED00E00000FA050A
:100CA0002DE9F0470F46050061D0434E306800F053
:100CB0000700B84209D2306820F00700384330609E
:100CC000306800F00700B84251D128683B4C8107DA
:100CD00012D5400703D5606840F4E0606060287872
:100CE000000703D5606840F4605060606068A968E0
:100CF00020F0F000084360602878C00728D06868BA
:100D0000012810D02168022810D0890700292EDA86
:100D1000616821F0030101436160FFF723FF804612
:100D200041F288390DE021688903EFE78901EDE799
:100D3000FFF718FFA0EB0801494502D90320BDE8E1
:100D4000F0876068696800F00C00B0EB810FEFD1AC
:100D5000306800F00700B8420BD9306820F0070077
:100D600038433060306800F00700B84201D00120FD
:100D7000E5E72878400705D56068E96820F4E06079
:100D8000084360602878000706D56068296920F468
:100D9000605040EAC100606000F038F86168084ABD
:100DA000C1F30311515CC840064908600648006859
:100DB000FFF7F8FE0020C2E70020024000100240CA
:100DC000C221000810000020080000200448054946
:100DD00000684968044AC1F30221515CC840704769
:100DE0001000002000100240D221000804480549EC
:100DF00000684968044AC1F3C221515CC840704789
:100E00001000002000100240D22100080E4A516854
:100E10000E4801F00C03042B11D0082B0FD10C4805
:100E2000C1F38343C903C05C0AD55168084AC1F3C2
:100E30004041921E515C054A5043B0FBF1F07047AF
:100E400004494843704700000010024000127A0035
:100E5000B221000800093D002DE9F84F040070D0D0
:100E60002078C04DC00749D06868C0F381000128D0
:100E700007D06868C0F38100022809D16868C00300
:100E800006D52868800339D560680028E7D035E0AA
:100E90006068B0F5803F0BD010B1B0F5A02F11D035
:100EA000286820F480302860286820F4802002E040
:100EB000286840F480302860606890B1FFF752FEE7
:100EC00006460AE0286840F480202860F0E700BF6A
:100ED000FFF748FE801B642873D828688003F7D585
:100EE0000CE0FFF73FFE064605E000BFFFF73AFEC5
:100EF000801B6428F0D828688003F7D420789A4EA5
:100F000080074FF001094FF0000839D5686810F0EC
:100F10000C0F07D06868C0F38100022809D1686807
:100F2000C00306D42868800714D52069012808D199
:100F300010E02069B0B1C6F80090FFF713FE074635
:100F400005E00AE1FFF70EFEC01B0228C4D828689E
:100F50008007F7D52868616920F0F80040EAC100F1
:100F600028600DE0C6F80080FFF7FCFD074604E0AE
:100F7000FFF7F8FDC01B022823D828688007F7D4A4
:100F8000207800072CD57948A169D9B1C0F8009024
:100F9000FFF7E8FD074604E0FFF7E4FDC01B022869
:100FA0000FD8686A8007F7D571484FF4FA51006886
:100FB000B0FBF1F0009000BF0098411E0091FAD202
:100FC0000EE080E0C0F80080FFF7CCFD074604E0AB
:100FD000FFF7C8FDC01B022875D8686A8007F7D4E0
:100FE0002078400760D5E8690027C00008D4E86988
:100FF00040F08050E861E869012700F080500090DF
:101000005C480168C90513D40168834641F48071C6
:101010000160FFF7A7FD824606E000BFFFF7A2FDD3
:10102000A0EB0A0064284ED8DBF80000C005F5D517
:10103000E06801280AD008B1052813D0286A20F0FA
:1010400001002862286A20F0040002E0286A40F0CB
:1010500001002862E06841F2883B98B1FFF782FD09
:1010600082460BE0286A40F004002862EEE700BFE9
:10107000FFF778FDA0EB0A0159455AD8286A800786
:10108000F6D50CE0FFF76EFD824605E0FFF76AFD3E
:10109000A0EB0A0159454CD8286A8007F6D41FB145
:1010A000E86920F08050E861E06988B36968C1F3BD
:1010B0008101022944D00228C6F8608004D0FFF7DD
:1010C00051FD044638E034E0FFF74CFD074604E0EC
:1010D000FFF748FDC01B02282BD828688001F7D4F1
:1010E000206AB0F5803F05D16868A16820F400301F
:1010F00008436860D4E908010843696821F4741161
:1011000008436860C6F86090FFF72CFD044606E0CF
:1011100025E000BFFFF726FD001B022809D828683C
:101120008001F7D51BE000BFFFF71CFD001B022864
:1011300002D90320BDE8F88F28688001F4D40EE0BE
:101140000128F7D06868226A00F48031914204D106
:10115000616A00F47010884201D00120EAE70020A3
:10116000E8E70000001002400000424280044242D2
:10117000100000200070004010B5401EB0F1807FCC
:1011800001D3012010BD4FF0E02460610F216017F2
:1011900000F031FF0020A06107202061002010BD79
:1011A0007047704770B590F83C20012A26D0012482
:1011B00080F83C40022280F83D2003685A689D6810
:1011C00022F070060A6832435A600D4B02689A4258
:1011D00008D0B2F1804F05D00A4B9A4202D00A4B98
:1011E0009A4204D1496825F080031943916080F840
:1011F0003D40002180F83C10084670BD022070BDC3
:10120000002C0140000400400008004010B504001C
:1012100003D094F83D0010B107E0012010BD00207C
:1012200084F83C00204600F01FF8022084F83D00BE
:10123000211D206800F088FC012084F8460084F815
:101240003E0084F83F0084F8400084F8410084F8B0
:10125000420084F8430084F8440084F8450084F890
:101260003D00002010BD000008B50068B0F1804FBF
:1012700012D10A48C16941F00101C161C06900226F
:1012800000F00100009011461C20FFF7D7FCBDE8DC
:1012900008401C20FFF7C4BC08BD0000001002403D
:1012A00070B5044690F83C000025012817D00126AF
:1012B00084F83C60022084F83D002068826822F0B7
:1012C000770222F47F4282600868502838D00DDC13
:1012D00020284FD005DC90B3102811D14AE002201D
:1012E00070BD302846D040280AD13BE060282FD07E
:1012F00070280DD0B0F5805F03D0B0F5005F12D03C
:10130000012584F83D60002084F83C00284670BD2B
:10131000CB68D1E90121206800F052FC2068816887
:1013200041F0770109E0CB68D1E90121206800F0A4
:1013300047FC2068816841F480418160E1E719E061
:10134000CA684968206800F04DFC5021206806E01A
:10135000CA684968206800F056FC6021206800F0E7
:1013600039FCCEE7CA684968206800F03BFC4021A0
:101370002068F4E7226801461046F0E770472DE93F
:10138000F04104460068C66805694FF00007A907E8
:1013900013D5B10711D5F91E01610120207720680E
:1013A00080698007204602D0FFF7E8FF04E000F0E4
:1013B0007EF8204600F07CF82777680716D570077E
:1013C00014D521686FF0040008610220207720689E
:1013D000806910F4407F204602D0FFF7CFFF04E081
:1013E00000F065F8204600F063F82777280715D548
:1013F000300713D521686FF00800086104202077BA
:101400002068C0698007204602D0FFF7B7FF04E0DC
:1014100000F04DF8204600F04BF82777E80616D587
:10142000F00614D521686FF01000086108202077BD
:101430002068C06910F4407F204602D0FFF79EFF6D
:1014400004E000F034F8204600F032F82777E8078F
:1014500008D0F00706D021686FF00100086120462F
:1014600000F027F8280608D5300606D521686FF069
:10147000800008612046FFF793FE680608D57006D5
:1014800006D521686FF040000861204600F012F890
:10149000A8060AD5B00608D521686FF020000861BB
:1014A0002046BDE8F041FFF77CBEBDE8F081704703
:1014B00070477047704738B5044690F842002028BE
:1014C00001D0022038BD51B14AB101202063002073
:1014D0006063204600F040FD216B012901D001200E
:1014E00038BD21680A684968009121680C3151E8CB
:1014F000002F42F0100241E80023002BF5D138BD47
:101500000068044A904203D1034801220270C1706E
:1015100070470000003801400000002010B504466C
:101520000068406994F84110C0F3C010212911D11E
:1015300080B12068143050E8001F21F0800140E89D
:101540000012002AF5D1A06B08B1FFF789F82046F8
:1015500000F037FC2068406994F84210C0F3801016
:10156000222911D180B12068143050E8001F21F0E9
:10157000400140E80012002AF5D1E06B08B1FFF706
:101580006FF8204600F0F6FB002010BD7047000009
:10159000F8B5016804460868CA684B6910F00F0F77
:1015A0004FF0000559D003F0010602F4907737435D
:1015B00065D0C10705D0D10503D5616C41F00101AB
:1015C0006164410705D5D90703D0616C41F0020180
:1015D0006164810705D5D90703D0616C41F004012E
:1015E0006164010707D502F02001314303D0616C2B
:1015F00041F008016164616C00293AD0800604D58D
:10160000900602D5204600F0EAFB20684069616C34
:10161000C0F38010090700D460B3204600F0AAFB95
:1016200020684069400621D52068143050E8001F2A
:1016300021F0400140E80012002AF5D1E06BA8B18A
:101640006D494163E06BFFF72FF8002811D0E06B84
:10165000416B01B0BDE8F040084783060FD5930603
:101660000DD52046BDE8F84000F0B9BB2046FFF795
:101670008DFFF8BD2046FFF789FF6564F8BD266B36
:101680002023012E7CD1C6067AD5D60678D50868E7
:101690004868009048694FF00206400640D5E16B6B
:1016A000086840680004000CE8D0A28D8242E5D9A9
:1016B000E085886920282DD020680C3050E8001F74
:1016C00021F4807140E80012002AF5D1206814301E
:1016D00050E8001F21F0010140E80012002AF5D176
:1016E0002068143050E8001F21F0400140E800124B
:1016F000002AF5D184F84230256320680C3050E888
:10170000001F21F0100140E80012002AF5D1E06B23
:10171000FEF7A6FF6663A08DE18D401A81B22AE034
:10172000A08DE18D401A81B2E08D0028A6D000295D
:10173000A4D022680C3252E8000F20F4907042E8E6
:101740000007002FF5D12068143050E8002F22F058
:10175000010240E80027002FF5D184F842302563CC
:1017600020680C3050E8002F22F0100240E80023DF
:10177000002BF5D166632046FFF7C2FEF8BDFFE7F8
:1017800005062BD5150629D594F841002128F5D159
:10179000A068B0F5805F01D12069B0B1206A411C1A
:1017A0002162216800784860E08C401E0004000C33
:1017B000E084E3D12068C16821F08001C160206825
:1017C000C16841F04001C160D8E7206A0088C0F3D9
:1017D00008004860206A801C2062E5E74006CDD5FD
:1017E0005006CBD5CA68204622F04002CA6084F871
:1017F000413000F0E5F8C1E72B1C000870B504008B
:1018000004D094F84100002510B106E0012070BD1D
:1018100084F84050204600F023F8242084F841004A
:101820002068C16821F40051C160204600F038FBF7
:101830002068016921F4904101612068416921F02B
:101840002A0141612068C16841F40051C1606564AA
:10185000202084F8410084F842006563002070BDB8
:10186000F0B585B0002406460094019402940394D8
:1018700000682F49884258D12E48816941F480413F
:101880008161816901F480410491816941F0040121
:1018900081618069284D00F0040004904FF40070CD
:1018A0000090022001900320039069462846FFF72C
:1018B00069F82815CDE90004694628460294FFF727
:1018C00061F81F4D1D488027C5E90004C5E902479E
:1018D00020202C61C5E905404FF44050E8612846BE
:1018E000FEF7D8FF08B1FEF7B9FEF5636E62144D3E
:1018F00012484435143801C5102091C5000245F83E
:1019000010496C61C5E906400D484430FEF7C2FF3E
:1019100008B1FEF7A3FEB5630022114625206E62D2
:10192000FFF78CF92520FFF77BF905B0F0BD00002B
:1019300000380140001002400008014058000240F9
:101940006C0100207047704770B5044690F8410064
:10195000202801D0022070BD49B342B32162A28485
:10196000E28400206064212384F84130A56B114B90
:10197000AB62A56B104BEB62A56B104B2B63A36B9B
:101980005863256813462A1DA06BFEF7B1FF216836
:101990006FF0400008602068143050E8001F41F0EC
:1019A000800140E80012002AF5D1002070BD01201E
:1019B00070BD0000291D00086B1D00083B1C0008BD
:1019C00070477047FEE700000D4808B5416941F0D7
:1019D000010141614069002200F0010000901146C0
:1019E0000E20FFF72BF90E20FFF71AF900221146FF
:1019F0000F20FFF723F9BDE808400F20FFF710B9CB
:101A000000100240094808B5816941F02001816158
:101A1000816901F020010091816941F00401816137
:101A2000806900F00400009008BD00000010024032
:101A300010B586B0002417480094019402940394D2
:101A400004944FF080410594016041F61F41C0E9C4
:101A5000011442F20F71C0E903148461FFF7D6FB51
:101A600008B1FEF7FBFD4FF480500090694609482D
:101A7000FFF716FC08B1FEF7F1FD049404A9054830
:101A80000594FFF78FFB002801D0FEF7E7FD06B0B5
:101A900010BD0000DC0000200C4810B50A490160B0
:101AA0004FF4E1314160002181600C22C160C0E946
:101AB00004128161C161FFF7A1FE002803D0BDE8D7
:101AC0001040FEF7CBBD10BD0038014024010020BE
:101AD000FEE7FEE770477047FFF74AB830B58FB0B2
:101AE00028216846FEF78AFC14210AA8FEF786FC26
:101AF00001210804CDE9001000240294022504917C
:101B0000CDE907504FF4E01009906846FFF7A4F9BB
:101B100008B172B6FEE70F20CDE90A054FF48060E8
:101B2000CDE90C4002210AA80E94FFF7B9F800286D
:101B300001D072B6FEE70FB030BD70470148FFF725
:101B40001EBC0000DC000020F0B50268194B1A4CE6
:101B50001A4D4FF08047984205D0B84203D0A042BA
:101B600001D0A84203D122F070064A68324398425D
:101B700005D0B84203D0A04201D0A84203D122F43C
:101B80004074CA6822434C6922F0800222430260FA
:101B90008A68C2620A688262984201D10969016357
:101BA000012141610169C90703D0016921F00101E7
:101BB0000161F0BD002C014000040040000800401D
:101BC00010B5846842EA032224F47F440A43224386
:101BD000826010BD826822F070020A4342F0070161
:101BE0008160704710B5036A046A24F0010404623E
:101BF000846924F0F00444EA021423F00A020A4340
:101C00008461026210BD10B5036A046A24F01004F6
:101C10000462846923F0A00324F4704444EA02328D
:101C200043EA01118261016210BD10B5406A0021D2
:101C3000C185C184FFF7AAFC10BD70B5446A206855
:101C4000406994F84110C0F3C0100025212904D147
:101C500018B1E584204600F0B4F82068406994F893
:101C60004210C0F38010222904D118B1E585204626
:101C700000F080F8606C40F0100060642046FFF7D0
:101C800085FC70BD10B50146406A096809684FF0CF
:101C9000000289062ED4C28501680C3151E8003F4C
:101CA00023F4807341E80034002CF5D1016814312D
:101CB00051E8003F23F0010341E80034002CF5D146
:101CC0000168143151E8003F23F0400341E800343B
:101CD000002CF5D1202180F84210016B012909D197
:101CE00001680C3151E8003F23F0100341E8003453
:101CF000002CF5D14263016B012902D0FFF722FECF
:101D000010BD818DFFF7FCFB10BD10B5406A0121AD
:101D10004163016B012902D0FFF715FE10BD818DD3
:101D20004908FFF7EDFB10BD10B50146406A096890
:101D30000968890616D40021C1840168143151E86C
:101D4000002F22F0800241E80023002BF5D101682A
:101D50000C3151E8002F42F0400241E80023002BF3
:101D6000F5D110BDFFF72CFE10BD10B5406AFFF78E
:101D700028FE10BD01680C3151E8002F22F490724A
:101D800041E80023002BF5D10168143151E8002F00
:101D900022F0010241E80023002BF5D1016B01295B
:101DA00009D101680C3151E8002F22F0100241E8FE
:101DB0000023002BF5D1202180F84210002101637F
:101DC000704701680C3151E8002F22F0C00241E851
:101DD0000023002BF5D1202180F84110704708B571
:101DE00090F84210222901D0022008BD82684FF4E9
:101DF00080539A4201D1016921B1816A9A421BD074
:101E00004AB10AE00268816A5268C2F308020A8095
:101E1000816A891C08E0026972B10268526802F0A6
:101E20007F020A70816A491C8162C18D491E0904C2
:101E3000090CC18503D01BE002685268F1E7016814
:101E4000CA6822F02002CA600168CA6822F480725F
:101E5000CA6001684A6922F001024A61202180F8C3
:101E6000421000214163026B012A03D0FFF76AFD93
:101E7000002008BD016301680C3151E8002F22F0F9
:101E8000100241E80023002BF5D101680A68D20650
:101E900002D50A6849680091818DFFF731FBE7E7B9
:101EA00070B5044600680169E26821F440511143AD
:101EB00001612169A0680843616908432168CA6813
:101EC00041F20C639A430243CA6020684169A269E7
:101ED00021F44071114341611E492068884202D1BA
:101EE000FEF784FF01E0FEF771FF00EBC00101EB9C
:101EF0000012606864218000B2FBF0F3B3FBF1F3E1
:101F00006FF018067343B2FBF0F5B2FBF0F605EB89
:101F10008305322303EB0515B5FBF1F5B6FBF1F6AE
:101F200005F0F00505EB0615B2FBF0F6B2FBF0F09C
:101F3000B0FBF1F06FF01802504306EB800003EBAA
:101F40000010B0FBF1F0216800F00F002844886019
:101F500070BD00000038014038B5816204468285BA
:101F6000002013466064222284F84220E56B1B4A5D
:101F7000AA62E56B1A4AEA62E56B1A4A2A63E26BC7
:101F800050630A462168E06B091DFEF7B1FC20682A
:101F9000016840680090206948B120680C3050E822
:101FA000001F41F4807140E80012002AF5D120683A
:101FB000143050E8001F41F0010140E80012002AEF
:101FC000F5D12068143050E8001F41F0400140E88E
:101FD0000012002AF5D1002038BD0000851C000841
:101FE0000B1D00083B1C00080148FFF7D1BA000098
:101FF00024010020FEE70907090E002804DB00F198
:10200000E02080F80014704700F00F0000F1E0209D
:1020100080F8141D70470000A0B0FEF7B1FDFFF777
:102020005DFDFFF7EFFCFFF7CFFCFFF701FDFFF7CA
:1020300033FD642242494348FFF73DFA424C04AE67
:1020400020780028FCD04FF47A70FEF789FC3D48D8
:10205000FFF764FAE278642A00D36422384904A8BE
:10206000FEF765F964213648FEF7A6F99DF81000E1
:10207000CC2803D19DF81100DD2805D0304833A1CC
:102080006430FEF7A5F83DE09DF8122062709DF8DF
:102090001330A370E07808280BD0042832D32848E6
:1020A00030A16430FEF794F835A004250068009054
:1020B0001AE09DF814009DF817709DF816509DF8D1
:1020C00015108DE8A3001E482EA16430FEF780F89D
:1020D00018E0725D35A11DA8FEF77AF818481DA911
:1020E0006430FEF718F96D1CE078854208DA082D97
:1020F000EFDB05E0124869466430FEF70CF96D1C11
:10210000082DF7DB0E486430FEF7E6F80C4982B282
:1021100064310C48FFF718FC002020700948642245
:10212000C16B09684A60C16B0968CE600168C06B09
:10213000091D0068816002490248FFF7BCF97FE78A
:10214000140000202401002000000020E68F90E70A
:10215000A4BA3A20E58C85E5A4B4E99499E8AFAF38
:10216000210D0A0049443A256420E4B8AAE695B056
:10217000EFBC9A256420E8B79DE7A6BBEFBC9A00A8
:102180003020000049443A256420E4B8AAE695B01E
:10219000EFBC9A256420E8B79DE7A6BBEFBC9A2563
:1021A0006420256420256420256400002564200027
:1021B000010202030405060708090A0B0C0D0E0FA5
:1021C00010100000000000000000010203040607D8
:1021D000080900000000010203040000FC210008BF
:1021E0000000002014000000280100081022000850
:1021F0001400002044080000440100080000000012
:1022000001000000100000000000000000127A0031
:04000005080000ED02
:00000001FF
